{"abi":[{"type":"constructor","inputs":[{"name":"_lqty","type":"address","internalType":"address"},{"name":"_lusd","type":"address","internalType":"address"},{"name":"_stakingV1","type":"address","internalType":"address"},{"name":"_bold","type":"address","internalType":"address"},{"name":"_config","type":"tuple","internalType":"struct IGovernance.Configuration","components":[{"name":"registrationFee","type":"uint128","internalType":"uint128"},{"name":"registrationThresholdFactor","type":"uint128","internalType":"uint128"},{"name":"unregistrationThresholdFactor","type":"uint128","internalType":"uint128"},{"name":"registrationWarmUpPeriod","type":"uint16","internalType":"uint16"},{"name":"unregistrationAfterEpochs","type":"uint16","internalType":"uint16"},{"name":"votingThresholdFactor","type":"uint128","internalType":"uint128"},{"name":"minClaim","type":"uint88","internalType":"uint88"},{"name":"minAccrual","type":"uint88","internalType":"uint88"},{"name":"epochStart","type":"uint32","internalType":"uint32"},{"name":"epochDuration","type":"uint32","internalType":"uint32"},{"name":"epochVotingCutoff","type":"uint32","internalType":"uint32"}]},{"name":"_initiatives","type":"address[]","internalType":"address[]"}],"stateMutability":"nonpayable"},{"type":"function","name":"EPOCH_DURATION","inputs":[],"outputs":[{"name":"","type":"uint256","internalType":"uint256"}],"stateMutability":"view"},{"type":"function","name":"EPOCH_START","inputs":[],"outputs":[{"name":"","type":"uint256","internalType":"uint256"}],"stateMutability":"view"},{"type":"function","name":"EPOCH_VOTING_CUTOFF","inputs":[],"outputs":[{"name":"","type":"uint256","internalType":"uint256"}],"stateMutability":"view"},{"type":"function","name":"MIN_ACCRUAL","inputs":[],"outputs":[{"name":"","type":"uint256","internalType":"uint256"}],"stateMutability":"view"},{"type":"function","name":"MIN_CLAIM","inputs":[],"outputs":[{"name":"","type":"uint256","internalType":"uint256"}],"stateMutability":"view"},{"type":"function","name":"REGISTRATION_FEE","inputs":[],"outputs":[{"name":"","type":"uint256","internalType":"uint256"}],"stateMutability":"view"},{"type":"function","name":"REGISTRATION_THRESHOLD_FACTOR","inputs":[],"outputs":[{"name":"","type":"uint256","internalType":"uint256"}],"stateMutability":"view"},{"type":"function","name":"REGISTRATION_WARM_UP_PERIOD","inputs":[],"outputs":[{"name":"","type":"uint256","internalType":"uint256"}],"stateMutability":"view"},{"type":"function","name":"UNREGISTRATION_AFTER_EPOCHS","inputs":[],"outputs":[{"name":"","type":"uint256","internalType":"uint256"}],"stateMutability":"view"},{"type":"function","name":"UNREGISTRATION_THRESHOLD_FACTOR","inputs":[],"outputs":[{"name":"","type":"uint256","internalType":"uint256"}],"stateMutability":"view"},{"type":"function","name":"VOTING_THRESHOLD_FACTOR","inputs":[],"outputs":[{"name":"","type":"uint256","internalType":"uint256"}],"stateMutability":"view"},{"type":"function","name":"allocateLQTY","inputs":[{"name":"_initiatives","type":"address[]","internalType":"address[]"},{"name":"_deltaLQTYVotes","type":"int176[]","internalType":"int176[]"},{"name":"_deltaLQTYVetos","type":"int176[]","internalType":"int176[]"}],"outputs":[],"stateMutability":"nonpayable"},{"type":"function","name":"bold","inputs":[],"outputs":[{"name":"","type":"address","internalType":"contract IERC20"}],"stateMutability":"view"},{"type":"function","name":"boldAccrued","inputs":[],"outputs":[{"name":"","type":"uint256","internalType":"uint256"}],"stateMutability":"view"},{"type":"function","name":"calculateVotingThreshold","inputs":[],"outputs":[{"name":"","type":"uint256","internalType":"uint256"}],"stateMutability":"view"},{"type":"function","name":"claimForInitiative","inputs":[{"name":"_initiative","type":"address","internalType":"address"}],"outputs":[{"name":"","type":"uint256","internalType":"uint256"}],"stateMutability":"nonpayable"},{"type":"function","name":"claimFromStakingV1","inputs":[{"name":"_rewardRecipient","type":"address","internalType":"address"}],"outputs":[{"name":"accruedLUSD","type":"uint256","internalType":"uint256"},{"name":"accruedETH","type":"uint256","internalType":"uint256"}],"stateMutability":"nonpayable"},{"type":"function","name":"deployUserProxy","inputs":[],"outputs":[{"name":"","type":"address","internalType":"address"}],"stateMutability":"nonpayable"},{"type":"function","name":"depositLQTY","inputs":[{"name":"_lqtyAmount","type":"uint88","internalType":"uint88"}],"outputs":[],"stateMutability":"nonpayable"},{"type":"function","name":"depositLQTYViaPermit","inputs":[{"name":"_lqtyAmount","type":"uint88","internalType":"uint88"},{"name":"_permitParams","type":"tuple","internalType":"struct PermitParams","components":[{"name":"owner","type":"address","internalType":"address"},{"name":"spender","type":"address","internalType":"address"},{"name":"value","type":"uint256","internalType":"uint256"},{"name":"deadline","type":"uint256","internalType":"uint256"},{"name":"v","type":"uint8","internalType":"uint8"},{"name":"r","type":"bytes32","internalType":"bytes32"},{"name":"s","type":"bytes32","internalType":"bytes32"}]}],"outputs":[],"stateMutability":"nonpayable"},{"type":"function","name":"deriveUserProxyAddress","inputs":[{"name":"_user","type":"address","internalType":"address"}],"outputs":[{"name":"","type":"address","internalType":"address"}],"stateMutability":"view"},{"type":"function","name":"epoch","inputs":[],"outputs":[{"name":"","type":"uint16","internalType":"uint16"}],"stateMutability":"view"},{"type":"function","name":"epochStart","inputs":[],"outputs":[{"name":"","type":"uint32","internalType":"uint32"}],"stateMutability":"view"},{"type":"function","name":"globalState","inputs":[],"outputs":[{"name":"countedVoteLQTY","type":"uint88","internalType":"uint88"},{"name":"countedVoteLQTYAverageTimestamp","type":"uint32","internalType":"uint32"}],"stateMutability":"view"},{"type":"function","name":"initiativeStates","inputs":[{"name":"","type":"address","internalType":"address"}],"outputs":[{"name":"voteLQTY","type":"uint88","internalType":"uint88"},{"name":"vetoLQTY","type":"uint88","internalType":"uint88"},{"name":"averageStakingTimestampVoteLQTY","type":"uint32","internalType":"uint32"},{"name":"averageStakingTimestampVetoLQTY","type":"uint32","internalType":"uint32"},{"name":"counted","type":"uint16","internalType":"uint16"}],"stateMutability":"view"},{"type":"function","name":"lqty","inputs":[],"outputs":[{"name":"","type":"address","internalType":"contract IERC20"}],"stateMutability":"view"},{"type":"function","name":"lqtyAllocatedByUserToInitiative","inputs":[{"name":"","type":"address","internalType":"address"},{"name":"","type":"address","internalType":"address"}],"outputs":[{"name":"voteLQTY","type":"uint88","internalType":"uint88"},{"name":"vetoLQTY","type":"uint88","internalType":"uint88"},{"name":"atEpoch","type":"uint16","internalType":"uint16"}],"stateMutability":"view"},{"type":"function","name":"lqtyToVotes","inputs":[{"name":"_lqtyAmount","type":"uint88","internalType":"uint88"},{"name":"_currentTimestamp","type":"uint256","internalType":"uint256"},{"name":"_averageTimestamp","type":"uint32","internalType":"uint32"}],"outputs":[{"name":"","type":"uint240","internalType":"uint240"}],"stateMutability":"pure"},{"type":"function","name":"multicall","inputs":[{"name":"data","type":"bytes[]","internalType":"bytes[]"}],"outputs":[{"name":"results","type":"bytes[]","internalType":"bytes[]"}],"stateMutability":"payable"},{"type":"function","name":"registerInitiative","inputs":[{"name":"_initiative","type":"address","internalType":"address"}],"outputs":[],"stateMutability":"nonpayable"},{"type":"function","name":"registeredInitiatives","inputs":[{"name":"","type":"address","internalType":"address"}],"outputs":[{"name":"","type":"uint16","internalType":"uint16"}],"stateMutability":"view"},{"type":"function","name":"secondsWithinEpoch","inputs":[],"outputs":[{"name":"","type":"uint32","internalType":"uint32"}],"stateMutability":"view"},{"type":"function","name":"snapshotVotesForInitiative","inputs":[{"name":"_initiative","type":"address","internalType":"address"}],"outputs":[{"name":"voteSnapshot","type":"tuple","internalType":"struct IGovernance.VoteSnapshot","components":[{"name":"votes","type":"uint240","internalType":"uint240"},{"name":"forEpoch","type":"uint16","internalType":"uint16"}]},{"name":"initiativeVoteSnapshot","type":"tuple","internalType":"struct IGovernance.InitiativeVoteSnapshot","components":[{"name":"votes","type":"uint224","internalType":"uint224"},{"name":"forEpoch","type":"uint16","internalType":"uint16"},{"name":"lastCountedEpoch","type":"uint16","internalType":"uint16"}]}],"stateMutability":"nonpayable"},{"type":"function","name":"stakingV1","inputs":[],"outputs":[{"name":"","type":"address","internalType":"contract ILQTYStaking"}],"stateMutability":"view"},{"type":"function","name":"unregisterInitiative","inputs":[{"name":"_initiative","type":"address","internalType":"address"}],"outputs":[],"stateMutability":"nonpayable"},{"type":"function","name":"userProxyImplementation","inputs":[],"outputs":[{"name":"","type":"address","internalType":"address"}],"stateMutability":"view"},{"type":"function","name":"userStates","inputs":[{"name":"","type":"address","internalType":"address"}],"outputs":[{"name":"allocatedLQTY","type":"uint88","internalType":"uint88"},{"name":"averageStakingTimestamp","type":"uint32","internalType":"uint32"}],"stateMutability":"view"},{"type":"function","name":"votesForInitiativeSnapshot","inputs":[{"name":"","type":"address","internalType":"address"}],"outputs":[{"name":"votes","type":"uint224","internalType":"uint224"},{"name":"forEpoch","type":"uint16","internalType":"uint16"},{"name":"lastCountedEpoch","type":"uint16","internalType":"uint16"}],"stateMutability":"view"},{"type":"function","name":"votesSnapshot","inputs":[],"outputs":[{"name":"votes","type":"uint240","internalType":"uint240"},{"name":"forEpoch","type":"uint16","internalType":"uint16"}],"stateMutability":"view"},{"type":"function","name":"withdrawLQTY","inputs":[{"name":"_lqtyAmount","type":"uint88","internalType":"uint88"}],"outputs":[],"stateMutability":"nonpayable"},{"type":"event","name":"AllocateLQTY","inputs":[{"name":"user","type":"address","indexed":false,"internalType":"address"},{"name":"initiative","type":"address","indexed":false,"internalType":"address"},{"name":"deltaVoteLQTY","type":"int256","indexed":false,"internalType":"int256"},{"name":"deltaVetoLQTY","type":"int256","indexed":false,"internalType":"int256"},{"name":"atEpoch","type":"uint16","indexed":false,"internalType":"uint16"}],"anonymous":false},{"type":"event","name":"ClaimForInitiative","inputs":[{"name":"initiative","type":"address","indexed":false,"internalType":"address"},{"name":"bold","type":"uint256","indexed":false,"internalType":"uint256"},{"name":"forEpoch","type":"uint256","indexed":false,"internalType":"uint256"}],"anonymous":false},{"type":"event","name":"DeployUserProxy","inputs":[{"name":"user","type":"address","indexed":true,"internalType":"address"},{"name":"userProxy","type":"address","indexed":true,"internalType":"address"}],"anonymous":false},{"type":"event","name":"DepositLQTY","inputs":[{"name":"user","type":"address","indexed":false,"internalType":"address"},{"name":"depositedLQTY","type":"uint256","indexed":false,"internalType":"uint256"}],"anonymous":false},{"type":"event","name":"RegisterInitiative","inputs":[{"name":"initiative","type":"address","indexed":false,"internalType":"address"},{"name":"registrant","type":"address","indexed":false,"internalType":"address"},{"name":"atEpoch","type":"uint16","indexed":false,"internalType":"uint16"}],"anonymous":false},{"type":"event","name":"SnapshotVotes","inputs":[{"name":"votes","type":"uint240","indexed":false,"internalType":"uint240"},{"name":"forEpoch","type":"uint16","indexed":false,"internalType":"uint16"}],"anonymous":false},{"type":"event","name":"SnapshotVotesForInitiative","inputs":[{"name":"initiative","type":"address","indexed":false,"internalType":"address"},{"name":"votes","type":"uint240","indexed":false,"internalType":"uint240"},{"name":"forEpoch","type":"uint16","indexed":false,"internalType":"uint16"}],"anonymous":false},{"type":"event","name":"UnregisterInitiative","inputs":[{"name":"initiative","type":"address","indexed":false,"internalType":"address"},{"name":"atEpoch","type":"uint16","indexed":false,"internalType":"uint16"}],"anonymous":false},{"type":"event","name":"WithdrawLQTY","inputs":[{"name":"user","type":"address","indexed":false,"internalType":"address"},{"name":"withdrawnLQTY","type":"uint256","indexed":false,"internalType":"uint256"},{"name":"accruedLUSD","type":"uint256","indexed":false,"internalType":"uint256"},{"name":"accruedETH","type":"uint256","indexed":false,"internalType":"uint256"}],"anonymous":false},{"type":"error","name":"AddressEmptyCode","inputs":[{"name":"target","type":"address","internalType":"address"}]},{"type":"error","name":"AddressInsufficientBalance","inputs":[{"name":"account","type":"address","internalType":"address"}]},{"type":"error","name":"ERC1167FailedCreateClone","inputs":[]},{"type":"error","name":"FailedInnerCall","inputs":[]},{"type":"error","name":"ReentrancyGuardReentrantCall","inputs":[]},{"type":"error","name":"SafeERC20FailedOperation","inputs":[{"name":"token","type":"address","internalType":"address"}]}],"bytecode":{"object":"0x61026060405234801562000011575f80fd5b50604051620063ee380380620063ee833981016040819052620000349162000563565b8585858282826040516200004890620003f8565b6001600160a01b03938416815291831660208301529091166040820152606001604051809103905ff08015801562000082573d5f803e3d5ffd5b506001600160a01b0390811660805260015f5587811660a05289811660c090815290871660e0908152860151908601516001600160581b03918216911611159250620001189150505760405162461bcd60e51b815260206004820152601d60248201527f476f763a206d696e2d636c61696d2d67742d6d696e2d6163637275616c00000060448201526064015b60405180910390fd5b81516001600160801b039081166101a052602083015181166101c052604083015181166101e052606083015161ffff908116610200526080840151166102205260a0830151166102405260c08201516001600160581b039081166101605260e083015116610180526101008083015163ffffffff90811690915261012083015116620001e75760405162461bcd60e51b815260206004820152601860248201527f476f763a2065706f63682d6475726174696f6e2d7a65726f000000000000000060448201526064016200010f565b610120808301805163ffffffff90811690925251610140840151908216911610620002685760405162461bcd60e51b815260206004820152602a60248201527f476f763a2065706f63682d766f74696e672d6375746f66662d67742d65706f636044820152693416b23ab930ba34b7b760b11b60648201526084016200010f565b6101408083015163ffffffff1690525f5b8151811015620003eb576040805160a0810182525f80825260208201819052918101829052606081018290526080810182905283519091600691859085908110620002c857620002c8620006e6565b6020908102919091018101516001600160a01b031682528181019290925260409081015f90812084518154948601519386015160608701516080909701516001600160581b039283166001600160b01b0319909716969096176b010000000000000000000000929095169190910293909317600160b01b600160f01b031916600160b01b63ffffffff9485160263ffffffff60d01b191617600160d01b9390951692909202939093176001600160f01b0316600160f01b61ffff909316929092029190911790558251600191600891859085908110620003ac57620003ac620006e6565b6020908102919091018101516001600160a01b031682528101919091526040015f20805461ffff191661ffff9290921691909117905560010162000279565b50505050505050620006fa565b61121080620051de83390190565b80516001600160a01b03811681146200041d575f80fd5b919050565b634e487b7160e01b5f52604160045260245ffd5b60405161016081016001600160401b03811182821017156200045c576200045c62000422565b60405290565b80516001600160801b03811681146200041d575f80fd5b805161ffff811681146200041d575f80fd5b80516001600160581b03811681146200041d575f80fd5b805163ffffffff811681146200041d575f80fd5b5f82601f830112620004c6575f80fd5b815160206001600160401b0380831115620004e557620004e562000422565b8260051b604051601f19603f830116810181811084821117156200050d576200050d62000422565b60405293845260208187018101949081019250878511156200052d575f80fd5b6020870191505b848210156200055857620005488262000406565b8352918301919083019062000534565b979650505050505050565b5f805f805f808688036102008112156200057b575f80fd5b620005868862000406565b9650620005966020890162000406565b9550620005a66040890162000406565b9450620005b66060890162000406565b935061016080607f1983011215620005cc575f80fd5b620005d662000436565b9150620005e660808a0162000462565b8252620005f660a08a0162000462565b60208301526200060960c08a0162000462565b60408301526200061c60e08a0162000479565b606083015261010062000631818b0162000479565b608084015261012062000646818c0162000462565b60a08501526101406200065b818d016200048b565b60c08601526200066d848d016200048b565b60e0860152620006816101808d01620004a2565b83860152620006946101a08d01620004a2565b82860152620006a76101c08d01620004a2565b908501525050506101e08801519092506001600160401b03811115620006cb575f80fd5b620006d989828a01620004b6565b9150509295509295509295565b634e487b7160e01b5f52603260045260245ffd5b60805160a05160c05160e05161010051610120516101405161016051610180516101a0516101c0516101e05161020051610220516102405161498c620008525f395f81816108880152611d6b01525f8181610be40152610e9101525f818161039e0152610d7e01525f81816107d00152610efe01525f818161049a0152611a0201525f818161079d015261183b01525f8181610c51015261332601525f81816104190152611d2901525f81816102c001526125e801525f81816109d0015281816111ba015281816117270152611dd801525f818161054d015281816111f8015281816116fa0152818161174b01528181611dab0152611dfc01525f8181610803015281816118170152818161231a01526132a401525f61085501525f8181610c840152818161140101528181611a9a01528181612e530152613ad701525f81816108cf01528181611786015261306e015261498c5ff3fe6080604052600436106102ab575f3560e01c806378a1bdd411610165578063ac9650d8116100c6578063cc9baa121161007c578063e76c01e411610062578063e76c01e414610c06578063e772b76514610c40578063f556a79c14610c73575f80fd5b8063cc9baa1214610bb4578063e4a61d9514610bd3575f80fd5b8063bfd79cae116100ac578063bfd79cae14610b42578063c20fb59e14610b76578063c37f7b7014610b95575f80fd5b8063ac9650d814610a89578063b1d8f27414610aa9575f80fd5b8063900cf0cf1161011b578063a5e8455d11610101578063a5e8455d146109aa578063a70b9f0c146109bf578063a9952a0c146109f2575f80fd5b8063900cf0cf146108f157806391050f4014610905575f80fd5b80638a00b67a1161014b5780638a00b67a146108775780638b7d38a1146108aa5780638d4f0b6c146108be575f80fd5b806378a1bdd4146108255780637f6ec45514610844575f80fd5b80633c12e04e1161020f57806353905402116101c557806364b4f751116101ab57806364b4f7511461078c5780636bca7c55146107bf578063727d0f35146107f2575f80fd5b806353905402146106805780635c79696c14610753575f80fd5b806346d62a63116101f557806346d62a631461053c578063502832751461056f578063524fcc8014610583575f80fd5b80633c12e04e146104fe5780633f37dc771461051d575f80fd5b80631b4ff320116102645780631eda33891161024a5780631eda33891461043b5780632591003a1461048957806338f3e285146104bc575f80fd5b80631b4ff320146103e95780631cd2a05d14610408575f80fd5b80630f2f6aa5116102945780630f2f6aa51461036c5780631030e7b61461038d57806315e5a1e5146103c0575f80fd5b80630df9049b146102af5780630ecc535f146102f5575b5f80fd5b3480156102ba575f80fd5b506102e27f000000000000000000000000000000000000000000000000000000000000000081565b6040519081526020015b60405180910390f35b348015610300575f80fd5b5061034461030f36600461409a565b60056020525f90815260409020546affffffffffffffffffffff8116906b010000000000000000000000900463ffffffff1682565b604080516affffffffffffffffffffff909316835263ffffffff9091166020830152016102ec565b348015610377575f80fd5b5061038b61038636600461409a565b610ca6565b005b348015610398575f80fd5b506102e27f000000000000000000000000000000000000000000000000000000000000000081565b3480156103cb575f80fd5b506103d461119a565b60405163ffffffff90911681526020016102ec565b3480156103f4575f80fd5b5061038b6104033660046140cd565b611222565b348015610413575f80fd5b506102e27f000000000000000000000000000000000000000000000000000000000000000081565b348015610446575f80fd5b5061045a6104553660046140e6565b6112ce565b6040517dffffffffffffffffffffffffffffffffffffffffffffffffffffffffffff90911681526020016102ec565b348015610494575f80fd5b506102e27f000000000000000000000000000000000000000000000000000000000000000081565b3480156104c7575f80fd5b506104eb6104d636600461409a565b60086020525f908152604090205461ffff1681565b60405161ffff90911681526020016102ec565b348015610509575f80fd5b5061038b6105183660046140cd565b611300565b348015610528575f80fd5b5061038b61053736600461412b565b611651565b348015610547575f80fd5b506102e27f000000000000000000000000000000000000000000000000000000000000000081565b34801561057a575f80fd5b506103d46116f7565b34801561058e575f80fd5b5061063c61059d36600461409a565b60066020525f90815260409020546affffffffffffffffffffff808216916b01000000000000000000000081049091169063ffffffff76010000000000000000000000000000000000000000000082048116917a01000000000000000000000000000000000000000000000000000081049091169061ffff7e010000000000000000000000000000000000000000000000000000000000009091041685565b604080516affffffffffffffffffffff968716815295909416602086015263ffffffff9283169385019390935216606083015261ffff16608082015260a0016102ec565b34801561068b575f80fd5b5061071461069a36600461409a565b60036020525f90815260409020547bffffffffffffffffffffffffffffffffffffffffffffffffffffffff81169061ffff7c010000000000000000000000000000000000000000000000000000000082048116917e0100000000000000000000000000000000000000000000000000000000000090041683565b604080517bffffffffffffffffffffffffffffffffffffffffffffffffffffffff909416845261ffff92831660208501529116908201526060016102ec565b34801561075e575f80fd5b5061076761177f565b60405173ffffffffffffffffffffffffffffffffffffffff90911681526020016102ec565b348015610797575f80fd5b506102e27f000000000000000000000000000000000000000000000000000000000000000081565b3480156107ca575f80fd5b506102e27f000000000000000000000000000000000000000000000000000000000000000081565b3480156107fd575f80fd5b506107677f000000000000000000000000000000000000000000000000000000000000000081565b348015610830575f80fd5b5061038b61083f36600461409a565b6117f5565b34801561084f575f80fd5b506107677f000000000000000000000000000000000000000000000000000000000000000081565b348015610882575f80fd5b506102e27f000000000000000000000000000000000000000000000000000000000000000081565b3480156108b5575f80fd5b506102e2611cbc565b3480156108c9575f80fd5b506107677f000000000000000000000000000000000000000000000000000000000000000081565b3480156108fc575f80fd5b506104eb611da8565b348015610910575f80fd5b5061097c61091f366004614186565b600760209081525f92835260408084209091529082529020546affffffffffffffffffffff808216916b010000000000000000000000810490911690760100000000000000000000000000000000000000000000900461ffff1683565b604080516affffffffffffffffffffff948516815293909216602084015261ffff16908201526060016102ec565b3480156109b5575f80fd5b506102e260015481565b3480156109ca575f80fd5b506102e27f000000000000000000000000000000000000000000000000000000000000000081565b3480156109fd575f80fd5b50600254610a50907dffffffffffffffffffffffffffffffffffffffffffffffffffffffffffff8116907e01000000000000000000000000000000000000000000000000000000000000900461ffff1682565b604080517dffffffffffffffffffffffffffffffffffffffffffffffffffffffffffff909316835261ffff9091166020830152016102ec565b610a9c610a973660046141ff565b611e36565b6040516102ec91906142a9565b348015610ab4575f80fd5b50610ac8610ac336600461409a565b611f97565b6040805183517dffffffffffffffffffffffffffffffffffffffffffffffffffffffffffff16815260209384015161ffff9081168583015283517bffffffffffffffffffffffffffffffffffffffffffffffffffffffff16828401529383015184166060820152910151909116608082015260a0016102ec565b348015610b4d575f80fd5b50610b61610b5c36600461409a565b611fef565b604080519283526020830191909152016102ec565b348015610b81575f80fd5b506102e2610b9036600461409a565b612148565b348015610ba0575f80fd5b5061038b610baf366004614329565b612439565b348015610bbf575f80fd5b50610767610bce36600461409a565b613068565b348015610bde575f80fd5b506102e27f000000000000000000000000000000000000000000000000000000000000000081565b348015610c11575f80fd5b50600454610344906affffffffffffffffffffff8116906b010000000000000000000000900463ffffffff1682565b348015610c4b575f80fd5b506102e27f000000000000000000000000000000000000000000000000000000000000000081565b348015610c7e575f80fd5b506107677f000000000000000000000000000000000000000000000000000000000000000081565b610cae6130af565b73ffffffffffffffffffffffffffffffffffffffff81165f9081526008602052604081205461ffff1690819003610d6c576040517f08c379a000000000000000000000000000000000000000000000000000000000815260206004820152602560248201527f476f7665726e616e63653a20696e69746961746976652d6e6f742d726567697360448201527f746572656400000000000000000000000000000000000000000000000000000060648201526084015b60405180910390fd5b5f610d75611da8565b90508061ffff167f00000000000000000000000000000000000000000000000000000000000000008361ffff16610dac91906143e9565b10610e39576040517f08c379a000000000000000000000000000000000000000000000000000000000815260206004820152602160248201527f476f7665726e616e63653a20696e69746961746976652d696e2d7761726d2d7560448201527f70000000000000000000000000000000000000000000000000000000000000006064820152608401610d63565b5f610e426130f0565b9150505f80610e50866133cb565b915091505f610e6882602001514284606001516112ce565b7dffffffffffffffffffffffffffffffffffffffffffffffffffffffffffff1690508461ffff167f0000000000000000000000000000000000000000000000000000000000000000846040015161ffff16610ec391906143e9565b1080610f3c575082517bffffffffffffffffffffffffffffffffffffffffffffffffffffffff1681118015610f3c5750670de0b6b3a76400007f0000000000000000000000000000000000000000000000000000000000000000610f25611cbc565b610f2f91906143fc565b610f399190614440565b81115b610fc8576040517f08c379a000000000000000000000000000000000000000000000000000000000815260206004820152602860248201527f476f7665726e616e63653a2063616e6e6f742d756e72656769737465722d696e60448201527f69746961746976650000000000000000000000000000000000000000000000006064820152608401610d63565b816080015161ffff1660010361107d576020840151604083015185518451610ffc93929190610ff79082614453565b6137c4565b63ffffffff166020850152815184518590611018908390614453565b6affffffffffffffffffffff908116909152855160048054602089015163ffffffff166b010000000000000000000000027fffffffffffffffffffffffffffffffffff0000000000000000000000000000009091169290931691909117919091179055505b73ffffffffffffffffffffffffffffffffffffffff87165f818152600660209081526040808320839055600882529182902080547fffffffffffffffffffffffffffffffffffffffffffffffffffffffffffff0000169055815192835261ffff8816908301527f8231be6875060a0fe4f35eaa6e112ebc15b8c04993114fe41c976bcb0a8c5ad8910160405180910390a16040517f1534f1e600000000000000000000000000000000000000000000000000000000815261ffff8616600482015273ffffffffffffffffffffffffffffffffffffffff881690631534f1e6906024015f604051808303815f87803b158015611176575f80fd5b505af1925050508015611187575060015b5050505050505061119760015f55565b50565b5f806111a4611da8565b90508061ffff165f036111b8575f91505090565b7f00000000000000000000000000000000000000000000000000000000000000006111e4600183614477565b61ffff166111f291906143fc565b61121c907f00000000000000000000000000000000000000000000000000000000000000006143e9565b91505090565b61122a6130af565b5f611234826139e3565b6040517f7acb77570000000000000000000000000000000000000000000000000000000081526affffffffffffffffffffff8416600482015233602482015290915073ffffffffffffffffffffffffffffffffffffffff821690637acb7757906044015f604051808303815f87803b1580156112ae575f80fd5b505af11580156112c0573d5f803e3d5ffd5b505050505061119760015f55565b5f6112d98383613c4c565b6112f69063ffffffff166affffffffffffffffffffff8616614492565b90505b9392505050565b6113086130af565b5f61131233613068565b90508073ffffffffffffffffffffffffffffffffffffffff163b5f036113ba576040517f08c379a000000000000000000000000000000000000000000000000000000000815260206004820152602360248201527f476f7665726e616e63653a20757365722d70726f78792d6e6f742d6465706c6f60448201527f79656400000000000000000000000000000000000000000000000000000000006064820152608401610d63565b6040517f16934fc400000000000000000000000000000000000000000000000000000000815273ffffffffffffffffffffffffffffffffffffffff82811660048301525f917f0000000000000000000000000000000000000000000000000000000000000000909116906316934fc490602401602060405180830381865afa158015611448573d5f803e3d5ffd5b505050506040513d601f19601f8201168201806040525081019061146c91906144db565b335f908152600560205260409020805491925090611497906affffffffffffffffffffff1683614453565b6affffffffffffffffffffff16846affffffffffffffffffffff161115611540576040517f08c379a000000000000000000000000000000000000000000000000000000000815260206004820152602960248201527f476f7665726e616e63653a20696e73756666696369656e742d756e616c6c6f6360448201527f617465642d6c71747900000000000000000000000000000000000000000000006064820152608401610d63565b6040517f4f5aa4c20000000000000000000000000000000000000000000000000000000081526affffffffffffffffffffff85166004820152336024820181905260448201525f90819073ffffffffffffffffffffffffffffffffffffffff861690634f5aa4c29060640160408051808303815f875af11580156115c6573d5f803e3d5ffd5b505050506040513d601f19601f820116820180604052508101906115ea91906144f2565b604080513381526affffffffffffffffffffff8a1660208201529081018390526060810182905291935091507f71330c97f647d5136a666c3cf5cef9ec255ec0468d9d7891929eff0f4845c4589060800160405180910390a1505050505061119760015f55565b6116596130af565b5f611663836139e3565b6040517f23f3fa8f00000000000000000000000000000000000000000000000000000000815290915073ffffffffffffffffffffffffffffffffffffffff8216906323f3fa8f906116bc90869033908790600401614514565b5f604051808303815f87803b1580156116d3575f80fd5b505af11580156116e5573d5f803e3d5ffd5b50505050506116f360015f55565b5050565b5f7f000000000000000000000000000000000000000000000000000000000000000042101561172557505f90565b7f00000000000000000000000000000000000000000000000000000000000000006117707f0000000000000000000000000000000000000000000000000000000000000000426145b9565b61177a91906145cc565b905090565b5f806117ab7f000000000000000000000000000000000000000000000000000000000000000033613c81565b60405190915073ffffffffffffffffffffffffffffffffffffffff82169033907fda66ba232f4fb8c122b7026f55eeff1d0b9cf2560b7873b2bba6eaab4c3d5989905f90a3919050565b6117fd6130af565b61185f73ffffffffffffffffffffffffffffffffffffffff7f00000000000000000000000000000000000000000000000000000000000000001633307f0000000000000000000000000000000000000000000000000000000000000000613d12565b73ffffffffffffffffffffffffffffffffffffffff81166118dc576040517f08c379a000000000000000000000000000000000000000000000000000000000815260206004820152601860248201527f476f7665726e616e63653a207a65726f2d6164647265737300000000000000006044820152606401610d63565b73ffffffffffffffffffffffffffffffffffffffff81165f9081526008602052604090205461ffff1615611992576040517f08c379a000000000000000000000000000000000000000000000000000000000815260206004820152602960248201527f476f7665726e616e63653a20696e69746961746976652d616c72656164792d7260448201527f65676973746572656400000000000000000000000000000000000000000000006064820152608401610d63565b5f61199c33613068565b90505f6119a76130f0565b50335f908152600560209081526040918290208251808401909352546affffffffffffffffffffff811683526b010000000000000000000000900463ffffffff1690820152815191925090670de0b6b3a764000090611a47907f0000000000000000000000000000000000000000000000000000000000000000907dffffffffffffffffffffffffffffffffffffffffffffffffffffffffffff166143fc565b611a519190614440565b6040517f16934fc400000000000000000000000000000000000000000000000000000000815273ffffffffffffffffffffffffffffffffffffffff8581166004830152611b10917f0000000000000000000000000000000000000000000000000000000000000000909116906316934fc490602401602060405180830381865afa158015611ae1573d5f803e3d5ffd5b505050506040513d601f19601f82011682018060405250810190611b0591906144db565b4284602001516112ce565b7dffffffffffffffffffffffffffffffffffffffffffffffffffffffffffff161015611b98576040517f08c379a000000000000000000000000000000000000000000000000000000000815260206004820152601d60248201527f476f7665726e616e63653a20696e73756666696369656e742d6c7174790000006044820152606401610d63565b5f611ba1611da8565b73ffffffffffffffffffffffffffffffffffffffff86165f8181526008602090815260409182902080547fffffffffffffffffffffffffffffffffffffffffffffffffffffffffffff00001661ffff861690811790915582519384523391840191909152908201529091507f7ab17b444faba95987ecdd72a2f119eeb382788e3c01bd2abdb8ddb718ee9b3a9060600160405180910390a16040517f8152f50000000000000000000000000000000000000000000000000000000000815261ffff8216600482015273ffffffffffffffffffffffffffffffffffffffff861690638152f500906024015f604051808303815f87803b158015611ca1575f80fd5b505af19250505080156112c057505050505061119760015f55565b6002545f907dffffffffffffffffffffffffffffffffffffffffffffffffffffffffffff16808203611cef575f91505090565b5f8082670de0b6b3a7640000600154611d0891906143fc565b611d129190614440565b90508015611d5a5780611d4d670de0b6b3a76400007f00000000000000000000000000000000000000000000000000000000000000006143fc565b611d579190614440565b91505b611da0670de0b6b3a7640000611d907f0000000000000000000000000000000000000000000000000000000000000000866143fc565b611d9a9190614440565b83613da1565b935050505090565b5f7f0000000000000000000000000000000000000000000000000000000000000000421015611dd657505f90565b7f0000000000000000000000000000000000000000000000000000000000000000611e217f0000000000000000000000000000000000000000000000000000000000000000426145b9565b611e2b9190614440565b61177a9060016143e9565b60608167ffffffffffffffff811115611e5157611e516145df565b604051908082528060200260200182016040528015611e8457816020015b6060815260200190600190039081611e6f5790505b5090505f5b82811015611f90575f8030868685818110611ea657611ea661460c565b9050602002810190611eb89190614639565b604051611ec692919061469a565b5f60405180830381855af49150503d805f8114611efe576040519150601f19603f3d011682016040523d82523d5f602084013e611f03565b606091505b509150915081611f6857604481511015611f1b575f80fd5b60048101905080806020019051810190611f3591906146a9565b6040517f08c379a0000000000000000000000000000000000000000000000000000000008152600401610d63919061476f565b80848481518110611f7b57611f7b61460c565b60209081029190910101525050600101611e89565b5092915050565b6040805180820182525f808252602080830182905283516060810185528281529081018290529283015290611fca6130af565b611fd26130f0565b509150611fde836133cb565b509050611fea60015f55565b915091565b5f805f611ffb33613068565b90508073ffffffffffffffffffffffffffffffffffffffff163b5f036120a3576040517f08c379a000000000000000000000000000000000000000000000000000000000815260206004820152602360248201527f476f7665726e616e63653a20757365722d70726f78792d6e6f742d6465706c6f60448201527f79656400000000000000000000000000000000000000000000000000000000006064820152608401610d63565b6040517f4f5aa4c20000000000000000000000000000000000000000000000000000000081525f600482015273ffffffffffffffffffffffffffffffffffffffff858116602483018190526044830152821690634f5aa4c29060640160408051808303815f875af115801561211a573d5f803e3d5ffd5b505050506040513d601f19601f8201168201806040525081019061213e91906144f2565b9250925050915091565b5f6121516130af565b5f61215a6130f0565b5090505f612167846133cb565b5082519091507dffffffffffffffffffffffffffffffffffffffffffffffffffffffffffff1615806121b6575080517bffffffffffffffffffffffffffffffffffffffffffffffffffffffff16155b156121c5575f9250505061242b565b815160015482515f927dffffffffffffffffffffffffffffffffffffffffffffffffffffffffffff1691612216917bffffffffffffffffffffffffffffffffffffffffffffffffffffffff166143fc565b6122209190614440565b5f80845273ffffffffffffffffffffffffffffffffffffffff8781168252600360209081526040928390208651815492880151948801517bffffffffffffffffffffffffffffffffffffffffffffffffffffffff9091167fffff000000000000000000000000000000000000000000000000000000000000909316929092177c010000000000000000000000000000000000000000000000000000000061ffff95861602177dffffffffffffffffffffffffffffffffffffffffffffffffffffffffffff167e01000000000000000000000000000000000000000000000000000000000000949092169390930217909155909150612341907f0000000000000000000000000000000000000000000000000000000000000000168683613db6565b6020838101516040805173ffffffffffffffffffffffffffffffffffffffff8916815292830184905261ffff90911682820152517fa1ee42ce2e3b0e300645a781ea3e7c494f626cfeb1c2cce20e2fa4a5da249d189181900360600190a160208301516040517f13440fab00000000000000000000000000000000000000000000000000000000815261ffff90911660048201526024810182905273ffffffffffffffffffffffffffffffffffffffff8616906313440fab906044015f604051808303815f87803b158015612414575f80fd5b505af1925050508015612425575060015b50925050505b61243460015f55565b919050565b6124416130af565b848314801561244f57508481145b6124db576040517f08c379a000000000000000000000000000000000000000000000000000000000815260206004820152602160248201527f476f7665726e616e63653a2061727261792d6c656e6774682d6d69736d61746360448201527f68000000000000000000000000000000000000000000000000000000000000006064820152608401610d63565b5f6124e46130f0565b9150505f6124f0611cbc565b90505f6124fb611da8565b335f9081526005602090815260408083208151808301909252546affffffffffffffffffffff811682526b010000000000000000000000900463ffffffff16918101919091529192505b89811015612e3a575f8b8b838181106125605761256061460c565b9050602002016020810190612575919061409a565b90505f8a8a8481811061258a5761258a61460c565b905060200201602081019061259f9190614781565b90505f8989858181106125b4576125b461460c565b90506020020160208101906125c99190614781565b90505f8260150b13158061261857505f8260150b1215801561261857507f000000000000000000000000000000000000000000000000000000000000000061260f6116f7565b63ffffffff1611155b61267e576040517f08c379a000000000000000000000000000000000000000000000000000000000815260206004820152601f60248201527f476f7665726e616e63653a2065706f63682d766f74696e672d6375746f6666006044820152606401610d63565b73ffffffffffffffffffffffffffffffffffffffff83165f9081526008602052604090205461ffff908116908716811080156126bd575061ffff811615155b612749576040517f08c379a000000000000000000000000000000000000000000000000000000000815260206004820152602160248201527f476f7665726e616e63653a20696e69746961746976652d6e6f742d616374697660448201527f65000000000000000000000000000000000000000000000000000000000000006064820152608401610d63565b505f612754846133cb565b9150505f6040518060a00160405280835f01516affffffffffffffffffffff16815260200183602001516affffffffffffffffffffff168152602001836040015163ffffffff168152602001836060015163ffffffff168152602001836080015161ffff1681525090506127df82604001518860200151845f0151610ff7865f01518960150b613df9565b63ffffffff16604083015260608201516020808901519084015161280d929190610ff781601589900b613df9565b63ffffffff166060830152815161282890601586900b613df9565b6affffffffffffffffffffff168252602082015161284a90601585900b613df9565b6affffffffffffffffffffff166020830152815160408301515f916128709142906112ce565b905089817dffffffffffffffffffffffffffffffffffffffffffffffffffffffffffff1610156128a0575f6128a3565b60015b60ff16608084810191825273ffffffffffffffffffffffffffffffffffffffff88165f9081526006602090815260409182902087518154928901519389015160608a015196516affffffffffffffffffffff9283167fffffffffffffffffffff00000000000000000000000000000000000000000000909516949094176b0100000000000000000000009290951691909102939093177fffff0000000000000000ffffffffffffffffffffffffffffffffffffffffffff1676010000000000000000000000000000000000000000000063ffffffff948516027fffff00000000ffffffffffffffffffffffffffffffffffffffffffffffffffff16177a0100000000000000000000000000000000000000000000000000009390951692909202939093177dffffffffffffffffffffffffffffffffffffffffffffffffffffffffffff167e0100000000000000000000000000000000000000000000000000000000000061ffff9485160217905583015116600103612a685760208b015160408401518c518451612a3b93929190610ff79082614453565b63ffffffff1660208c015281518b518c90612a57908390614453565b6affffffffffffffffffffff169052505b826080015161ffff16600103612ac45760208b015160408401518c518551612a9793929190610ff790826147a1565b63ffffffff1660208c015282518b518c90612ab39083906147a1565b6affffffffffffffffffffff169052505b335f90815260076020908152604080832073ffffffffffffffffffffffffffffffffffffffff8a168452825291829020825160608101845290546affffffffffffffffffffff8082168084526b010000000000000000000000830490911693830193909352760100000000000000000000000000000000000000000000900461ffff1692810192909252612b5c90601588900b613df9565b6affffffffffffffffffffff1681526020810151612b7e90601587900b613df9565b6affffffffffffffffffffff908116602083015261ffff8b16604083015281511615801590612bbd575060208101516affffffffffffffffffffff1615155b15612c24576040517f08c379a000000000000000000000000000000000000000000000000000000000815260206004820152601960248201527f476f7665726e616e63653a20766f74652d616e642d7665746f000000000000006044820152606401610d63565b335f90815260076020908152604080832073ffffffffffffffffffffffffffffffffffffffff8b1684528252918290208351815492850151938501516affffffffffffffffffffff9182167fffffffffffffffffffff00000000000000000000000000000000000000000000909416939093176b0100000000000000000000009190941602929092177fffffffffffffffff0000ffffffffffffffffffffffffffffffffffffffffffff1676010000000000000000000000000000000000000000000061ffff909216919091021790558851612d0c90612d0487896147c5565b60150b613df9565b6affffffffffffffffffffff1689526040805133815273ffffffffffffffffffffffffffffffffffffffff89166020820152601588810b8284015287900b606082015261ffff8c16608082015290517ffc65ef0a2ea71843c9c13a7a7c0bdccb27001f82e748634c3155cba36faccc2c9181900360a00190a1805160208201516040517ffc8c782e00000000000000000000000000000000000000000000000000000000815261ffff8d1660048201523360248201526affffffffffffffffffffff92831660448201529116606482015273ffffffffffffffffffffffffffffffffffffffff88169063fc8c782e906084015f604051808303815f87803b158015612e15575f80fd5b505af1925050508015612e26575060015b505050600190950194506125459350505050565b5080516affffffffffffffffffffff161580612f4257507f000000000000000000000000000000000000000000000000000000000000000073ffffffffffffffffffffffffffffffffffffffff166316934fc4612e9633613068565b6040517fffffffff0000000000000000000000000000000000000000000000000000000060e084901b16815273ffffffffffffffffffffffffffffffffffffffff9091166004820152602401602060405180830381865afa158015612efd573d5f803e3d5ffd5b505050506040513d601f19601f82011682018060405250810190612f2191906144db565b6affffffffffffffffffffff16815f01516affffffffffffffffffffff1611155b612fce576040517f08c379a000000000000000000000000000000000000000000000000000000000815260206004820152602c60248201527f476f7665726e616e63653a20696e73756666696369656e742d6f722d756e616c60448201527f6c6f63617465642d6c71747900000000000000000000000000000000000000006064820152608401610d63565b83516004805460209687015163ffffffff9081166b0100000000000000000000009081027fffffffffffffffffffffffffffffffffff0000000000000000000000000000009384166affffffffffffffffffffff9687161717909355335f9081526005895260409020855181549690990151909116909202931695909116949094171790925550613060905060015f55565b505050505050565b5f6130a97f000000000000000000000000000000000000000000000000000000000000000073ffffffffffffffffffffffffffffffffffffffff8416613e29565b92915050565b60025f54036130ea576040517f3ee5aeb500000000000000000000000000000000000000000000000000000000815260040160405180910390fd5b60025f55565b604080518082019091525f8082526020820152604080518082019091525f80825260208201525f61311f611da8565b6040805180820182526002547dffffffffffffffffffffffffffffffffffffffffffffffffffffffffffff811682527e01000000000000000000000000000000000000000000000000000000000000900461ffff1660208083019190915282518084019093526004546affffffffffffffffffffff811684526b010000000000000000000000900463ffffffff16908301529450925090506131c2600182614477565b61ffff16836020015161ffff1610156133c65781516131f3906131e361119a565b63ffffffff1684602001516112ce565b7dffffffffffffffffffffffffffffffffffffffffffffffffffffffffffff168352613220600182614477565b61ffff166020840181905283517dffffffffffffffffffffffffffffffffffffffffffffffffffffffffffff167e01000000000000000000000000000000000000000000000000000000000000909102176002556040517f70a082310000000000000000000000000000000000000000000000000000000081523060048201525f907f000000000000000000000000000000000000000000000000000000000000000073ffffffffffffffffffffffffffffffffffffffff16906370a0823190602401602060405180830381865afa1580156132fe573d5f803e3d5ffd5b505050506040513d601f19601f8201168201806040525081019061332291906144db565b90507f000000000000000000000000000000000000000000000000000000000000000081106133515780613353565b5f5b600155835160208501516040517ff8c3496a83a68868434a061a876d356df06c7ef5bd8476f13d496b966855686b926133bc9290917dffffffffffffffffffffffffffffffffffffffffffffffffffffffffffff92909216825261ffff16602082015260400190565b60405180910390a1505b509091565b604080516060810182525f80825260208201819052918101919091526040805160a0810182525f808252602082018190529181018290526060810182905260808101919091525f61341a611da8565b73ffffffffffffffffffffffffffffffffffffffff85165f81815260036020908152604080832081516060808201845291547bffffffffffffffffffffffffffffffffffffffffffffffffffffffff8116825261ffff7c010000000000000000000000000000000000000000000000000000000082048116838701527e01000000000000000000000000000000000000000000000000000000000000918290048116838601529686526006855294839020835160a08101855290546affffffffffffffffffffff80821683526b0100000000000000000000008204169582019590955263ffffffff76010000000000000000000000000000000000000000000086048116948201949094527a01000000000000000000000000000000000000000000000000000085049093169183019190915292909104909216608083015294509250905061356a600182614477565b61ffff16836020015161ffff1610156137be575f613586611cbc565b90505f61359161119a565b90505f6135ac855f01518363ffffffff1687604001516112ce565b90505f6135c886602001518463ffffffff1688606001516112ce565b905083827dffffffffffffffffffffffffffffffffffffffffffffffffffffffffffff161015801561363a5750807dffffffffffffffffffffffffffffffffffffffffffffffffffffffffffff16827dffffffffffffffffffffffffffffffffffffffffffffffffffffffffffff1610155b15613679577bffffffffffffffffffffffffffffffffffffffffffffffffffffffff8216875261366b600186614477565b61ffff16604088015261367d565b5f87525b613688600186614477565b61ffff908116602089810191825273ffffffffffffffffffffffffffffffffffffffff8b165f818152600383526040908190208c5181549551838f015188167e01000000000000000000000000000000000000000000000000000000000000027dffffffffffffffffffffffffffffffffffffffffffffffffffffffffffff919098167c010000000000000000000000000000000000000000000000000000000081027fffff0000000000000000000000000000000000000000000000000000000000009098167bffffffffffffffffffffffffffffffffffffffffffffffffffffffff90931692831797909717169690961790558051918252918101939093528201527f6f22c33d2cf529b6a07e72fdf3fd25bb07828d8017cc4d47405c3ec9cadf6ffd9060600160405180910390a1505050505b50915091565b5f816affffffffffffffffffffff165f036137e057505f6139db565b5f6137eb4287613c4c565b90505f6137f84287613c4c565b90505f846affffffffffffffffffffff16866affffffffffffffffffffff16116138b8575f6138278787614453565b90505f61384763ffffffff86166affffffffffffffffffffff8a16614492565b90505f61386763ffffffff86166affffffffffffffffffffff8516614492565b90505f6138748284614819565b90506affffffffffffffffffffff8916156138a5576138a06affffffffffffffffffffff8a1682614850565b6138a7565b5f5b63ffffffff1694505050505061399e565b5f6138c38688614453565b90505f6138e363ffffffff86166affffffffffffffffffffff8a16614492565b90505f61390363ffffffff86166affffffffffffffffffffff8516614492565b90505f817dffffffffffffffffffffffffffffffffffffffffffffffffffffffffffff16837dffffffffffffffffffffffffffffffffffffffffffffffffffffffffffff161015613954575f61395e565b61395e828461488c565b90506affffffffffffffffffffff89161561398f5761398a6affffffffffffffffffffff8a1682614850565b613991565b5f5b63ffffffff169450505050505b42816affffffffffffffffffffff1611156139be575f93505050506139db565b6139d56affffffffffffffffffffff8216426145b9565b93505050505b949350505050565b5f80826affffffffffffffffffffff1611613a5a576040517f08c379a000000000000000000000000000000000000000000000000000000000815260206004820152601c60248201527f476f7665726e616e63653a207a65726f2d6c7174792d616d6f756e74000000006044820152606401610d63565b5f613a6433613068565b90508073ffffffffffffffffffffffffffffffffffffffff163b5f03613a8e57613a8c61177f565b505b6040517f16934fc400000000000000000000000000000000000000000000000000000000815273ffffffffffffffffffffffffffffffffffffffff808316600483015282915f917f000000000000000000000000000000000000000000000000000000000000000016906316934fc490602401602060405180830381865afa158015613b1c573d5f803e3d5ffd5b505050506040513d601f19601f82011682018060405250810190613b4091906144db565b335f908152600560209081526040918290208251808401909352546affffffffffffffffffffff811683526b010000000000000000000000900463ffffffff1690820181905291925090613b9a904284610ff78a826147a1565b63ffffffff9081166020838101918252335f818152600583526040908190208651815495519096166b010000000000000000000000027fffffffffffffffffffffffffffffffffff0000000000000000000000000000009095166affffffffffffffffffffff96871617949094179093558251908152928916908301527f841ac74294f07d75868ac51778dc366b1fa11e8934b969cd5b0185c0e91dabb1910160405180910390a15090949350505050565b5f63ffffffff82161580613c6b57508163ffffffff168363ffffffff16105b15613c7757505f6130a9565b6112f982846148c3565b5f763d602d80600a3d3981f3363d3d373d3d3d363d730000008360601b60e81c175f526e5af43d82803e903d91602b57fd5bf38360781b1760205281603760095ff5905073ffffffffffffffffffffffffffffffffffffffff81166130a9576040517fc2f868f400000000000000000000000000000000000000000000000000000000815260040160405180910390fd5b60405173ffffffffffffffffffffffffffffffffffffffff8481166024830152838116604483015260648201839052613d9b9186918216906323b872dd906084015b604051602081830303815290604052915060e01b6020820180517bffffffffffffffffffffffffffffffffffffffffffffffffffffffff8381831617835250505050613e88565b50505050565b5f818311613daf57816112f9565b5090919050565b60405173ffffffffffffffffffffffffffffffffffffffff838116602483015260448201839052613df491859182169063a9059cbb90606401613d54565b505050565b5f808260170b1215613e1f57613e0e826148e0565b613e189084614453565b90506130a9565b6112f982846147a1565b6040513060388201526f5af43d82803e903d91602b57fd5bf3ff602482015260148101839052733d602d80600a3d3981f3363d3d373d3d3d363d738152605881018290526037600c820120607882015260556043909101205f906112f9565b5f613ea973ffffffffffffffffffffffffffffffffffffffff841683613f1c565b905080515f14158015613ecd575080806020019051810190613ecb919061491c565b155b15613df4576040517f5274afe700000000000000000000000000000000000000000000000000000000815273ffffffffffffffffffffffffffffffffffffffff84166004820152602401610d63565b60606112f983835f845f808573ffffffffffffffffffffffffffffffffffffffff168486604051613f4d919061493b565b5f6040518083038185875af1925050503d805f8114613f87576040519150601f19603f3d011682016040523d82523d5f602084013e613f8c565b606091505b5091509150613f9c868383613fa6565b9695505050505050565b606082613fbb57613fb682614035565b6112f9565b8151158015613fdf575073ffffffffffffffffffffffffffffffffffffffff84163b155b1561402e576040517f9996b31500000000000000000000000000000000000000000000000000000000815273ffffffffffffffffffffffffffffffffffffffff85166004820152602401610d63565b50806112f9565b8051156140455780518082602001fd5b6040517f1425ea4200000000000000000000000000000000000000000000000000000000815260040160405180910390fd5b803573ffffffffffffffffffffffffffffffffffffffff81168114612434575f80fd5b5f602082840312156140aa575f80fd5b6112f982614077565b80356affffffffffffffffffffff81168114612434575f80fd5b5f602082840312156140dd575f80fd5b6112f9826140b3565b5f805f606084860312156140f8575f80fd5b614101846140b3565b925060208401359150604084013563ffffffff81168114614120575f80fd5b809150509250925092565b5f8082840361010081121561413e575f80fd5b614147846140b3565b925060e07fffffffffffffffffffffffffffffffffffffffffffffffffffffffffffffffe082011215614178575f80fd5b506020830190509250929050565b5f8060408385031215614197575f80fd5b6141a083614077565b91506141ae60208401614077565b90509250929050565b5f8083601f8401126141c7575f80fd5b50813567ffffffffffffffff8111156141de575f80fd5b6020830191508360208260051b85010111156141f8575f80fd5b9250929050565b5f8060208385031215614210575f80fd5b823567ffffffffffffffff811115614226575f80fd5b614232858286016141b7565b90969095509350505050565b5f5b83811015614258578181015183820152602001614240565b50505f910152565b5f815180845261427781602086016020860161423e565b601f017fffffffffffffffffffffffffffffffffffffffffffffffffffffffffffffffe0169290920160200192915050565b5f60208083016020845280855180835260408601915060408160051b8701019250602087015f5b8281101561431c577fffffffffffffffffffffffffffffffffffffffffffffffffffffffffffffffc088860301845261430a858351614260565b945092850192908501906001016142d0565b5092979650505050505050565b5f805f805f806060878903121561433e575f80fd5b863567ffffffffffffffff80821115614355575f80fd5b6143618a838b016141b7565b90985096506020890135915080821115614379575f80fd5b6143858a838b016141b7565b9096509450604089013591508082111561439d575f80fd5b506143aa89828a016141b7565b979a9699509497509295939492505050565b7f4e487b71000000000000000000000000000000000000000000000000000000005f52601160045260245ffd5b808201808211156130a9576130a96143bc565b80820281158282048414176130a9576130a96143bc565b7f4e487b71000000000000000000000000000000000000000000000000000000005f52601260045260245ffd5b5f8261444e5761444e614413565b500490565b6affffffffffffffffffffff828116828216039080821115611f9057611f906143bc565b61ffff828116828216039080821115611f9057611f906143bc565b7dffffffffffffffffffffffffffffffffffffffffffffffffffffffffffff8281168282168181028316929181158285048214176144d2576144d26143bc565b50505092915050565b5f602082840312156144eb575f80fd5b5051919050565b5f8060408385031215614503575f80fd5b505080516020909101519092909150565b6affffffffffffffffffffff8416815273ffffffffffffffffffffffffffffffffffffffff83811660208301526101208201908061455185614077565b1660408401528061456460208601614077565b1660608401525060408301356080830152606083013560a0830152608083013560ff81168114614592575f80fd5b60ff811660c08401525060a083013560e083015260c0830135610100830152949350505050565b818103818111156130a9576130a96143bc565b5f826145da576145da614413565b500690565b7f4e487b71000000000000000000000000000000000000000000000000000000005f52604160045260245ffd5b7f4e487b71000000000000000000000000000000000000000000000000000000005f52603260045260245ffd5b5f8083357fffffffffffffffffffffffffffffffffffffffffffffffffffffffffffffffe184360301811261466c575f80fd5b83018035915067ffffffffffffffff821115614686575f80fd5b6020019150368190038213156141f8575f80fd5b818382375f9101908152919050565b5f602082840312156146b9575f80fd5b815167ffffffffffffffff808211156146d0575f80fd5b818401915084601f8301126146e3575f80fd5b8151818111156146f5576146f56145df565b604051601f82017fffffffffffffffffffffffffffffffffffffffffffffffffffffffffffffffe0908116603f0116810190838211818310171561473b5761473b6145df565b81604052828152876020848701011115614753575f80fd5b61476483602083016020880161423e565b979650505050505050565b602081525f6112f96020830184614260565b5f60208284031215614791575f80fd5b81358060150b81146112f9575f80fd5b6affffffffffffffffffffff818116838216019080821115611f9057611f906143bc565b601581810b9083900b01757fffffffffffffffffffffffffffffffffffffffffff81137fffffffffffffffffffff80000000000000000000000000000000000000000000821217156130a9576130a96143bc565b7dffffffffffffffffffffffffffffffffffffffffffffffffffffffffffff818116838216019080821115611f9057611f906143bc565b5f7dffffffffffffffffffffffffffffffffffffffffffffffffffffffffffff8084168061488057614880614413565b92169190910492915050565b7dffffffffffffffffffffffffffffffffffffffffffffffffffffffffffff828116828216039080821115611f9057611f906143bc565b63ffffffff828116828216039080821115611f9057611f906143bc565b5f8160170b7fffffffffffffffff8000000000000000000000000000000000000000000000008103614914576149146143bc565b5f0392915050565b5f6020828403121561492c575f80fd5b815180151581146112f9575f80fd5b5f825161494c81846020870161423e565b919091019291505056fea26469706673582212203cfcab8cc3a2a71b2bce545073cb34692af163c08e0c6b724f8313f1d7ad10d764736f6c63430008180033610100604052348015610010575f80fd5b5060405161121038038061121083398101604081905261002f9161006b565b6001600160a01b0392831660805290821660a0521660c0523360e0526100ab565b80516001600160a01b0381168114610066575f80fd5b919050565b5f805f6060848603121561007d575f80fd5b61008684610050565b925061009460208501610050565b91506100a260408501610050565b90509250925092565b60805160a05160c05160e0516110d06101405f395f818161019a015281816102ed0152818161055d015261095901525f8181610200015281816102520152818161061301528181610ada0152610ba301525f81816101cd015281816107a4015261084401525f818161014201528181610431015281816106ae0152818161074f01528181610a320152610b0901526110d05ff3fe60806040526004361061007c575f3560e01c80637f6ec4551161004c5780637f6ec45514610131578063886117361461018957806399ad68a7146101bc578063f556a79c146101ef575f80fd5b80630b76619b1461008757806323f3fa8f146100bd5780634f5aa4c2146100de5780637acb775714610112575f80fd5b3661008357005b5f80fd5b348015610092575f80fd5b5061009b610222565b6040516bffffffffffffffffffffffff90911681526020015b60405180910390f35b3480156100c8575f80fd5b506100dc6100d7366004610f39565b6102d5565b005b3480156100e9575f80fd5b506100fd6100f8366004610f9c565b610543565b604080519283526020830191909152016100b4565b34801561011d575f80fd5b506100dc61012c366004610fd5565b610941565b34801561013c575f80fd5b506101647f000000000000000000000000000000000000000000000000000000000000000081565b60405173ffffffffffffffffffffffffffffffffffffffff90911681526020016100b4565b348015610194575f80fd5b506101647f000000000000000000000000000000000000000000000000000000000000000081565b3480156101c7575f80fd5b506101647f000000000000000000000000000000000000000000000000000000000000000081565b3480156101fa575f80fd5b506101647f000000000000000000000000000000000000000000000000000000000000000081565b6040517f16934fc40000000000000000000000000000000000000000000000000000000081523060048201525f907f000000000000000000000000000000000000000000000000000000000000000073ffffffffffffffffffffffffffffffffffffffff16906316934fc490602401602060405180830381865afa1580156102ac573d5f803e3d5ffd5b505050506040513d601f19601f820116820180604052508101906102d09190610fff565b905090565b3373ffffffffffffffffffffffffffffffffffffffff7f00000000000000000000000000000000000000000000000000000000000000001614610379576040517f08c379a000000000000000000000000000000000000000000000000000000000815260206004820152601f60248201527f5573657250726f78793a2063616c6c65722d6e6f742d7374616b696e6756320060448201526064015b60405180910390fd5b6103866020820182611016565b73ffffffffffffffffffffffffffffffffffffffff168273ffffffffffffffffffffffffffffffffffffffff161461041a576040517f08c379a000000000000000000000000000000000000000000000000000000000815260206004820152601b60248201527f5573657250726f78793a206f776e65722d6e6f742d73656e64657200000000006044820152606401610370565b73ffffffffffffffffffffffffffffffffffffffff7f00000000000000000000000000000000000000000000000000000000000000001663d505accf6104636020840184611016565b6104736040850160208601611016565b6040850135606086013561048d60a088016080890161102f565b6040517fffffffff0000000000000000000000000000000000000000000000000000000060e088901b16815273ffffffffffffffffffffffffffffffffffffffff95861660048201529490931660248501526044840191909152606483015260ff16608482015260a084013560a482015260c084013560c482015260e4015f604051808303815f87803b158015610522575f80fd5b505af1925050508015610533575060015b5061053e8383610941565b505050565b5f803373ffffffffffffffffffffffffffffffffffffffff7f000000000000000000000000000000000000000000000000000000000000000016146105e4576040517f08c379a000000000000000000000000000000000000000000000000000000000815260206004820152601f60248201527f5573657250726f78793a2063616c6c65722d6e6f742d7374616b696e675632006044820152606401610370565b6040517f2e17de78000000000000000000000000000000000000000000000000000000008152600481018690527f000000000000000000000000000000000000000000000000000000000000000073ffffffffffffffffffffffffffffffffffffffff1690632e17de78906024015f604051808303815f87803b158015610669575f80fd5b505af115801561067b573d5f803e3d5ffd5b50506040517f70a082310000000000000000000000000000000000000000000000000000000081523060048201525f92507f000000000000000000000000000000000000000000000000000000000000000073ffffffffffffffffffffffffffffffffffffffff1691506370a0823190602401602060405180830381865afa158015610709573d5f803e3d5ffd5b505050506040513d601f19601f8201168201806040525081019061072d9190610fff565b905080156107765761077673ffffffffffffffffffffffffffffffffffffffff7f0000000000000000000000000000000000000000000000000000000000000000168683610c62565b6040517f70a082310000000000000000000000000000000000000000000000000000000081523060048201527f000000000000000000000000000000000000000000000000000000000000000073ffffffffffffffffffffffffffffffffffffffff16906370a0823190602401602060405180830381865afa1580156107fe573d5f803e3d5ffd5b505050506040513d601f19601f820116820180604052508101906108229190610fff565b9250821561086b5761086b73ffffffffffffffffffffffffffffffffffffffff7f0000000000000000000000000000000000000000000000000000000000000000168585610c62565b47915081156108d4575f8473ffffffffffffffffffffffffffffffffffffffff16836040515f6040518083038185875af1925050503d805f81146108ca576040519150601f19603f3d011682016040523d82523d5f602084013e6108cf565b606091505b505050505b6040805187815273ffffffffffffffffffffffffffffffffffffffff8781166020830152861681830152606081018590526080810184905290517f456284d78fdb0e02a6be40b9d3ff483c163169c323de718e5d7b83df463ebaf89181900360a00190a150935093915050565b3373ffffffffffffffffffffffffffffffffffffffff7f000000000000000000000000000000000000000000000000000000000000000016146109e0576040517f08c379a000000000000000000000000000000000000000000000000000000000815260206004820152601f60248201527f5573657250726f78793a2063616c6c65722d6e6f742d7374616b696e675632006044820152606401610370565b6040517f23b872dd00000000000000000000000000000000000000000000000000000000815273ffffffffffffffffffffffffffffffffffffffff8281166004830152306024830152604482018490527f000000000000000000000000000000000000000000000000000000000000000016906323b872dd906064016020604051808303815f875af1158015610a78573d5f803e3d5ffd5b505050506040513d601f19601f82011682018060405250810190610a9c919061104f565b506040517f095ea7b300000000000000000000000000000000000000000000000000000000815273ffffffffffffffffffffffffffffffffffffffff7f000000000000000000000000000000000000000000000000000000000000000081166004830152602482018490527f0000000000000000000000000000000000000000000000000000000000000000169063095ea7b3906044016020604051808303815f875af1158015610b4f573d5f803e3d5ffd5b505050506040513d601f19601f82011682018060405250810190610b73919061104f565b506040517fa694fc3a000000000000000000000000000000000000000000000000000000008152600481018390527f000000000000000000000000000000000000000000000000000000000000000073ffffffffffffffffffffffffffffffffffffffff169063a694fc3a906024015f604051808303815f87803b158015610bf9575f80fd5b505af1158015610c0b573d5f803e3d5ffd5b50506040805185815273ffffffffffffffffffffffffffffffffffffffff851660208201527f2bccdce62e5aec7ee273161a374088a6da4311d0e688784bde3c1cec8a3c003a935001905060405180910390a15050565b6040805173ffffffffffffffffffffffffffffffffffffffff848116602483015260448083018590528351808403909101815260649092019092526020810180517bffffffffffffffffffffffffffffffffffffffffffffffffffffffff167fa9059cbb0000000000000000000000000000000000000000000000000000000017905261053e918591905f90610cfa90841683610d6d565b905080515f14158015610d1e575080806020019051810190610d1c919061104f565b155b1561053e576040517f5274afe700000000000000000000000000000000000000000000000000000000815273ffffffffffffffffffffffffffffffffffffffff84166004820152602401610370565b6060610d7a83835f610d81565b9392505050565b606081471015610dbf576040517fcd786059000000000000000000000000000000000000000000000000000000008152306004820152602401610370565b5f808573ffffffffffffffffffffffffffffffffffffffff168486604051610de7919061106e565b5f6040518083038185875af1925050503d805f8114610e21576040519150601f19603f3d011682016040523d82523d5f602084013e610e26565b606091505b5091509150610e36868383610e40565b9695505050505050565b606082610e5557610e5082610ecf565b610d7a565b8151158015610e79575073ffffffffffffffffffffffffffffffffffffffff84163b155b15610ec8576040517f9996b31500000000000000000000000000000000000000000000000000000000815273ffffffffffffffffffffffffffffffffffffffff85166004820152602401610370565b5080610d7a565b805115610edf5780518082602001fd5b6040517f1425ea4200000000000000000000000000000000000000000000000000000000815260040160405180910390fd5b803573ffffffffffffffffffffffffffffffffffffffff81168114610f34575f80fd5b919050565b5f805f838503610120811215610f4d575f80fd5b84359350610f5d60208601610f11565b925060e07fffffffffffffffffffffffffffffffffffffffffffffffffffffffffffffffc082011215610f8e575f80fd5b506040840190509250925092565b5f805f60608486031215610fae575f80fd5b83359250610fbe60208501610f11565b9150610fcc60408501610f11565b90509250925092565b5f8060408385031215610fe6575f80fd5b82359150610ff660208401610f11565b90509250929050565b5f6020828403121561100f575f80fd5b5051919050565b5f60208284031215611026575f80fd5b610d7a82610f11565b5f6020828403121561103f575f80fd5b813560ff81168114610d7a575f80fd5b5f6020828403121561105f575f80fd5b81518015158114610d7a575f80fd5b5f82515f5b8181101561108d5760208186018101518583015201611073565b505f92019182525091905056fea264697066735822122011edd2e5c6a1edda4c04f02acf3ab4ee171ef01abf12f94440b8c72ad6727b7864736f6c63430008180033","linkReferences":{}},"methodIdentifiers":{"EPOCH_DURATION()":"a70b9f0c","EPOCH_START()":"46d62a63","EPOCH_VOTING_CUTOFF()":"0df9049b","MIN_ACCRUAL()":"e772b765","MIN_CLAIM()":"1cd2a05d","REGISTRATION_FEE()":"64b4f751","REGISTRATION_THRESHOLD_FACTOR()":"2591003a","REGISTRATION_WARM_UP_PERIOD()":"1030e7b6","UNREGISTRATION_AFTER_EPOCHS()":"e4a61d95","UNREGISTRATION_THRESHOLD_FACTOR()":"6bca7c55","VOTING_THRESHOLD_FACTOR()":"8a00b67a","allocateLQTY(address[],int176[],int176[])":"c37f7b70","bold()":"727d0f35","boldAccrued()":"a5e8455d","calculateVotingThreshold()":"8b7d38a1","claimForInitiative(address)":"c20fb59e","claimFromStakingV1(address)":"bfd79cae","deployUserProxy()":"5c79696c","depositLQTY(uint88)":"1b4ff320","depositLQTYViaPermit(uint88,(address,address,uint256,uint256,uint8,bytes32,bytes32))":"3f37dc77","deriveUserProxyAddress(address)":"cc9baa12","epoch()":"900cf0cf","epochStart()":"15e5a1e5","globalState()":"e76c01e4","initiativeStates(address)":"524fcc80","lqty()":"7f6ec455","lqtyAllocatedByUserToInitiative(address,address)":"91050f40","lqtyToVotes(uint88,uint256,uint32)":"1eda3389","multicall(bytes[])":"ac9650d8","registerInitiative(address)":"78a1bdd4","registeredInitiatives(address)":"38f3e285","secondsWithinEpoch()":"50283275","snapshotVotesForInitiative(address)":"b1d8f274","stakingV1()":"f556a79c","unregisterInitiative(address)":"0f2f6aa5","userProxyImplementation()":"8d4f0b6c","userStates(address)":"0ecc535f","votesForInitiativeSnapshot(address)":"53905402","votesSnapshot()":"a9952a0c","withdrawLQTY(uint88)":"3c12e04e"},"id":100}